:020000040800F2
:10000000000200203907000851060008110400080A
:1000100051060008510600085106000800000000C3
:10002000000000000000000000000000153500087E
:100030005106000800000000C134000831330008F8
:100040005106000851060008510600085106000834
:100050005106000851060008510600085106000824
:100060005106000851060008510600085106000814
:100070005106000851060008510600085106000804
:1000800051060008510600085106000851060008F4
:100090005106000851060008510600085B060008DA
:1000A00051060008510600085106000851060008D4
:1000B00051060008510600085106000851060008C4
:1000C00051060008510600085106000851060008B4
:1000D00051060008510600085106000851060008A4
:1000E0009D06000851060008510600085106000848
:1000F0005106000851060008510600085106000884
:100100005106000851060008510600085106000873
:100110005106000851060008510600085106000863
:100120005106000851060008510600085106000853
:100130005106000851060008510600085106000843
:100140005106000851060008510600085106000833
:100150005106000851060008510600085106000823
:100160005106000851060008510600085106000813
:100170005106000851060008510600085106000803
:080180005106000851060008B9
:1001880070B501F057FB4FF47A7404FB00F502F0E8
:10019800FDFE064602F002FF7443B4FBF0F028446B
:1001A80070BD00F04FBD024B0021186801F072BF0E
:1001B800F8020020024B0021186801F037BF00BF89
:1001C800F8020020094A0023104612F8011F0133E3
:1001D8000029FAD1C25C2F2A02D101331844704792
:1001E8005C2AFAD0013BF5D100487047B07D000881
:1001F800F0B50023041F8B4214DA5D1C2A468A429C
:1002080050F8236000EB830706D050F82270B742FD
:10021800B8BF13460132F2E754F8043F3B6026604A
:100228002B46E8E7F0BD2DE9F74F4FF4804001F089
:1002380067F9DFF87CA0DFF87C80DFF87C90064661
:10024800FFF7C0FF33220146504601F085F8174FEB
:1002580014244FF480424146304603F08DFBFFF7EB
:100268008FFF4FF4805183463046FFF7C1FFFFF7F9
:1002780087FF0546FFF7A6FFA5EB0B05C4F115039D
:10028800014600953A22484601F066F8E3074CBF5C
:100298004FF400534FF00053013CBB61D9D142F2F7
:1002A800107001F075FA01F07DFAC9E7000C024000
:1002B800E17D00080C3B0008FF7D00081FB568467B
:1002C80000F018FB009805B05DF804FB1FB5684600
:1002D80000F010FB039805B05DF804FB1FB56846F5
:1002E80000F008FB029805B05DF804FB1FB56846EE
:1002F80000F000FB019805B05DF804FB07B53A4B28
:1003080000BF013BFCD1394802F090FF00F056FADB
:10031800374A3849136823F00F0343F00203136088
:10032800136843F480731360334B9A6822F0F00229
:100338009A609A6822F460429A609A6822F4E052BD
:1003480042F480529A601A6842F480321A601A465F
:100358001868800301D40139FAD113689B0342D588
:10036800136B264943F01F031363136B03F01F033A
:100378000193019B53681940214B0B435360536809
:100388001D4923F4403343F480335360136843F02A
:1003980080731360174B0A460868800101D4013B3B
:1003A800FAD113689B011ED59368134923F0030300
:1003B80043F0020393600F4B08468A6802F00C0270
:1003C800082A01D0013BF8D1836803F00C03082BFD
:1003D80009D14FF4C06002F017FF0A4803B05DF876
:1003E80004EB01F0BDBBFEE740420F00000000082F
:1003F800003C0240A0860100003802400080BFFF98
:100408000864400000E1F5051EF0040F07BFEFF394
:1004180008810220EFF309810120C0B200F032F810
:1004280030BFFDE72DE9F04104461348134FDFF8CC
:1004380050800E4600F090FF0C34002554F8082C2C
:100448002AB9BDB1BDE8F0410D4800F085BF14F8E8
:10045800043C54F80C1C3240DA40384600F07CFF6B
:10046800284405B24B2D03DD404600F075FF0025FA
:100478000C34E3E7BDE8F081597F00084F7E00089F
:10048800577E00082DE9F7430C4672B6504B514988
:10049800514E012818BF1946504800F05DFF01F081
:1004A8004FFF01464E4800F057FF4E4800F054FFFA
:1004B800E3680093D4E9012321684B4800F04CFF1E
:1004C800D4E905232169494800F046FF484800F06F
:1004D80043FFE1694748FFF7A5FF474800F03CFFA5
:1004E80031684648FFF79EFF3368590021D44448D5
:1004F800444E454FDFF84C8100F02EFF2034002594
:1005080015F0030903D12146304600F025FF54F8C1
:10051800041B384600F020FFB9F1030F02D1404612
:1005280000F01AFF0135202DEAD1384800F014FFF9
:100538004BE0374D2B7803F0FF07C3B1354B3648F6
:100548001F6800F009FF29783448FFF76BFF2B7804
:100558001A0603D53248394600F0FEFE2B7813F010
:10056800180F4FF09F0314BF012700272B702D4D44
:100578002A78C2B12C4B2D481F6800F0EDFE29786F
:100588002B48FFF74FFF2B781B0603D52448394625
:1005980000F0E2FE2B7813F0180F4FF09B0314BF06
:1005A800012700272B70234D2B889BB24BB1224883
:1005B80000F0D2FE29882148FFF734FF40F20F33BC
:1005C8002B801F4B3360002F91D030BFFDE700BF59
:1005D800607E00085B7E00082CED00E0677E000866
:1005E800917E0008B07E0008C27E0008F17E0008F7
:1005F800167F0008DC7B0008247F0008547C000874
:100608004C7F00081080000818800008587E0008F9
:1006180029ED00E038ED00E05B7F0008847C0008ED
:10062800877F000828ED00E034ED00E0A87F00088F
:10063800D87C00082AED00E0E27F0008207D000851
:10064800020000C0577F0008684620F007018D4669
:10065800FEE7684620F007018D4619B50C4B1C686B
:10066800A30601D5FFF7F0FF600601D5FFF7ECFF01
:10067800210601D5FFF7E8FFE20501D5FFF7E4FF02
:10068800A30501D5FFF7E0FFBDE81940854670478F
:10069800143C0140684620F007018D4619B50F4B00
:1006A8001C68620501D5FFF7CFFF230501D5FFF7C9
:1006B800CBFFE00401D5FFF7C7FFA10401D5FFF781
:1006C800C3FF620401D5FFF7BFFF230401D5FFF77D
:1006D800BBFFBDE819408546704700BF143C014088
:1006E800704770477047084A10B513880F2B9FBF93
:1006F80002EBC3040133C4E90101138094BF002055
:100708004FF0FF3010BD00BF0003002038B5074C84
:10071800258805B938BD2388013B9BB2238004EBAB
:10072800C303D3E901209047013DF2E7000300200D
:100738001A4A1B4908B5136843F47003136052F84A
:10074800743C43F4047342F8743C164B164A8B42CB
:1007580019D3164B164A0021934219D3154B164A42
:100768000021934217D3FFF7C9FD03F0E1F803F026
:100778002BF903F0C9F80020FFF7C8FFFFF7B2FF15
:10078800FFF7B0FFFEE752F8040B43F8040BDEE76F
:1007980043F8041BE0E743F8041BE2E788ED00E0B8
:1007A800F802002000020020E0880008F80200207B
:1007B8000804002008040020000002201A4B1A68D0
:1007C80042F001021A601A689107FCD500229A606B
:1007D800164A1A601A6822F0F80242F080021A607B
:1007E800114B1A689201FCD4114A5A6002F17C42FA
:1007F800C3F88420DA6822F4F852DA60DA6822F45E
:100808000052DA60DA6842F41F02DA60DA6842F409
:100818000012DA605A6F22F001025A675A6F42F0EA
:1008280080725A670120704700380240FFFFF2FAD1
:1008380010300024034B044A9B68C3F30313D35CB2
:10084800D840704700380240747D0008044B9A680D
:10085800044BC2F3822213441B7CD840704700BF6C
:1008680000380240747D0008044B9A68044BC2F3B8
:10087800423213441B7CD840704700BF0038024006
:10088800747D00080E4B0F495A6812F4800F0E4A07
:1008980018BF0A46082810D1596858685B68C3F31E
:1008A8000143C0F38810013301F03F015B00B2FB44
:1008B800F1F25043B0FBF3F070470020704700BFDF
:1008C8000038024000127A000024F400064B9868B1
:1008D80000F00C00042803D0082803D1FFF7D2BF8A
:1008E80002487047024870470038024000127A00F8
:1008F8000024F40010B50446FFF7E8FF2060FFF776
:1009080099FF6060FFF7A2FFA0606068FFF7ACFF87
:10091800E06010BD0B4A0C485368516813F4800F0F
:100928000A4B18BF184653685268C3F3881301F07E
:100938003F01B0FBF1F04343C2F30360B3FBF0F0B7
:10094800704700BF003802400024F40000127A000B
:10095800B0F1706F05D1044B1B689B0101D5FFF7FF
:10096800D9BF0020704700BF00380240034B186809
:1009780010F0007001D0FFF7CDBF7047003802407B
:100988000C4A0D485368D2F8841013F4800F0B4BAF
:1009980008BF1846D2F88430D2F88420C3F38813ED
:1009A80001F03F01B0FBF1F04343C2F30270B3FB27
:1009B800F0F070470038024000127A000024F4007A
:1009C800B0F5000F09D1074B9A68120207D41868CE
:1009D80010F0006004D0FFF7D3BF00207047024832
:1009E800704700BF003802400080BB000028034663
:1009F800B8BF00F10F037F2BF0B54FEA231200F2C6
:100A08008F80494B53F82240434203F00F0300F014
:100A18000F0058BF584201232668834093FAA3F277
:100A2800B2FA82F293FAA3F50327520007FA02F208
:100A3800B5FA85F526EA02026D000226AE40164395
:100A48002660A26893FAA3F5B5FA85F593FAA3F69A
:100A58006D0007FA05F522EA05058A68B6FA86F6F2
:100A6800022A28BF02227600B2402A43A2600A68FE
:100A7800012A3CD0022A0CBF4FF0020C4FF0000CA8
:100A8800E56893FAA3F7B7FA87F793FAA3F64FF056
:100A9800030EB6FA86F67F000EFA07F776000CFA10
:100AA80006F625EA0705354307284E68E56020DC89
:100AB800256A93FAA3F7B7FA87F793FAA3F14FF0E9
:100AC8000F0CB1FA81F1BF000CFA07F7890025EA8B
:100AD800070506FA01F1294321626168003A18BF47
:100AE800012221EA030382401A436260F0BD944662
:100AF800C6E7656A190A91FAA1F7B7FA87F791FA72
:100B0800A1F14FF00F0CB1FA81F1BF000CFA07F711
:100B1800890025EA070506FA01F129436162DCE745
:100B280000231B68FFDE00BF8C7D00082DE9F04321
:100B38008DB00F4603A9064600F00AF9041E72DBC1
:100B4800BDF90C30042B1FD0052B29D0032B6ED1F7
:100B5800049A01239340394A116B19431163126BAC
:100B680013400093009B304600F00EF9051E41DB50
:100B78000821304600F0D7F8041E1DDA14F1810F61
:100B880051D14FF0080821E0049A012393402B4AE1
:100B9800116C19431164126C13400193019BE2E735
:100BA800049A01239340254A516C19435164526CAD
:100BB80013400293029BD6E7E3D1012305A9CDE9AF
:100BC80005450793FFF712FF4FF00C08092130463F
:100BD80000F0A9F8041E26DB012305A94FF000093F
:100BE800CDE905950793FFF701FF304600F0DEF8E1
:100BF80005460CB92C4616E0114C182220604946CF
:100C08000DEB020002F0C6FE05A928460597CDF8AF
:100C1800248000F063F901280CD12268D36843F4DA
:100C28000053D3604C4620460DB0BDE8F0836FF00A
:100C38008204F8E76FF08304F5E700BF003802404C
:100C480084030020054B1B682BB11A681206FCD5DB
:100C5800C2B25A6070470248704700BF8403002040
:100C6800F5FDFFFF064B1B682BB11A68920604D5E9
:100C78005868C0B27047034870476FF084007047E7
:100C880084030020F5FDFFFF044B1B681BB11868A7
:100C9800C0F3401070470248704700BF840300202B
:100CA800F5FDFFFF08B5411E002311F8010F18B12B
:100CB800FFF7C8FF031EF8DA184608BD054B5B6846
:100CC8000246186828B159688A4201D01C33F8E7EF
:100CD800184670470C7B000838B5074B5C6805461A
:100CE800216831B1284602F05DFE08B11C34F7E7EF
:100CF8002146084638BD00BF0C7B000810B50C46DD
:100D0800FFF7DCFF48B14369B3F9002042B19442D0
:100D180001D1586810BD0833F6E76FF07F00F9E796
:100D28006FF08000F6E710B50C46FFF7D5FF48B125
:100D38004369B3F9002042B1944201D1586810BD0B
:100D48000833F6E76FF07F00F9E76FF08000F6E709
:100D580010B50C46FFF7C0FF28B10389238003694B
:100D68006360002010BD6FF07F00FBE710B50C46F4
:100D7800FFF7A4FF28B1038923800369636000207B
:100D880010BD6FF07F00FBE708B5FFF7A5FF08B1BE
:100D9800C06808BD6FF07F00FBE708B5FFF78EFF5E
:100DA80008B1C06808BD6FF07F00FBE708B5FFF722
:100DB80093FF00B1406808BD064B1B68B3F90020DB
:100DC8002AB1824201D15B6818470833F6E76FF011
:100DD800810070470C7B000808B5FFF76FFF28B14A
:100DE800BDE80840B0F90800FFF7E6BF6FF07F00E4
:100DF80008BD08B5FFF770FF28B1BDE80840B0F995
:100E08000800FFF7D9BF6FF07F0008BD10B50C468A
:100E1800FFF762FF38B1836943B193E8070084E8BC
:100E28000700002010BD6FF07F00FBE76FF0870020
:100E3800F8E710B50C46FFF741FF38B1836943B1B5
:100E480093E8070084E80700002010BD6FF07F00DA
:100E5800FBE76FF08700F8E710B50C46FFF73CFF9B
:100E680020B183692BB12360002010BD6FF07F0093
:100E7800FBE76FF08700F8E7154B98420AD103F5B6
:100E880094335A6A42F010025A625A6A22F01002E7
:100E98005A620CE00F4B98420BD103F5FA331A6AE9
:100EA80042F400321A621A6A22F400321A620120ED
:100EB8007047094B984209D103F592335A6A42F0B8
:100EC80020025A625A6A22F02002E1E700207047A5
:100ED80000100140004400400014014030B5C368D0
:100EE8009B0485B004460D4602D5002005B030BDF0
:100EF8004B68C968C2680B4329690B43A96922F486
:100F080016420B4322F00C021343C3600369AA681C
:100F180023F440531343036143696A6923F440731C
:100F2800134343616846FFF7E5FC1F4B9C4224D1FD
:100F380003990029D9D02A68002AD6D019234B430F
:100F4800A969B1F5004F4FF064011FD15200B3FBFE
:100F5800F2F3B3FBF1F001FB1033DB003233B3FBE8
:100F6800F1F303F007025B0002EB001203F4F873DD
:100F780013449BB2A3600120B8E70C4B9C4201D1FB
:100F88000299D6E70A4B9C42AFD1D1E79200B3FB56
:100F9800F2F3B3FBF1F201FB12331B013233B3FB63
:100FA800F1F303EB0213E4E70010014000440040B2
:100FB8000014014000234FF41652C0E900230C220C
:100FC800C0E90233C0E9042383617047C3689B0406
:100FD80010B513D40B682BB9036923F400630361BC
:100FE800012010BDD1E901340269234322F4706263
:100FF8001343CA68134343F40063F0E70020F0E7A3
:101008000023C0E90033C0E9023370470B4628B11A
:1010180002681170036801330360704703490A6866
:1010280012B1496818461047704700BF880300206E
:101038002DE9F0471D1E92468046089A0F4619DC96
:101048004FF02009D3072E461ED500240AF1FF3A97
:1010580026E001331AF803100029FAD1AB42B4BFD5
:10106800ED1A0D4612F0020F0CBF4FF020094FF099
:101078003009E7E70023EDE70FB1A74218D9494641
:101088004046FFF7C3FF013E002EA5EB0604F3DC44
:10109800DCE70FB1BC420BD24046FFF7B7FF013483
:1010A8001AF8011F0029F4D12644331B002B02DC57
:1010B8002046BDE8F0870FB1BC42F9D24946404608
:1010C800FFF7A4FF0134F0E72DE9F04F87B01E4683
:1010D800DDE91058129B81468A46144652B93022DF
:1010E800ADF80C20009303AA4346FFF7A1FF07B011
:1010F800BDE8F08F25B10A2E2FD1002A2DDA5442EF
:10110800139900228DF817203A390DF11702B4FB14
:10111800F6F006FB1047092F88BF7F183037A64224
:1011280002F1FF3B02F8017C19D96DB1B8F1000F4B
:1011380018D0990716D52D2148461293FFF766FF58
:10114800129B08F1FF38012500935A464346514641
:101158004846FFF76DFF2844C9E70025D0E7044655
:101168005A46D4E72D210BF8011C0025A2F1020BE9
:10117800EAE7024BD3E90021104700BF88030020AB
:1011880010B5441E14F8010F38B90D20FFF7F1FF10
:101198000A20FFF7EEFF012010BDFFF7EAFFF1E795
:1011A8002DE9F04F804687B0894615461C46022730
:1011B80000262B7853B9B8F1000F03D0D8F80030C7
:1011C80000221A70304607B0BDE8F08F252B40F09A
:1011D800B5806A786B1C002AEDD0252A00F0AD8016
:1011E8002D2A06BFAB1C4FF0010A4FF0000A1A4621
:1011F80012F8011B302927D04FF0000B1D4615F8B7
:10120800012BA2F13001C8B2092821D9682A24D0BB
:101218006C2A24D07A2A0CBF03271D462B78682B0A
:1012280004BF013500272B78732B1AD1226849494E
:10123800CDF800A004345B46002A08BF0A46494698
:101248004046FFF7F5FE24E04AF0020A1346CEE7CF
:101258000A2303FB0B1B2B46D0E70127DEE70327F6
:10126800DCE7642B01D0692B16D154F8042B1FB18D
:10127800012F02D112B200E052B26123CDE902A3DC
:10128800CDF804B0012300930A2349464046FFF7EE
:101298001BFF064401358CE7782B10D154F8042B3A
:1012A8001FB1012F02D192B200E0D2B26123CDE981
:1012B80002A300230093CDF804B01023E5E7582BD0
:1012C80009D154F8042B1FB1012F02D192B200E0CA
:1012D800D2B24123EBE7752B0ED154F8042B1FB182
:1012E800012F02D192B200E0D2B26123CDE902A36C
:1012F800CDF804B00023C6E7702B0FD1022341219B
:10130800CDE9023108200023CDE9003022681023FE
:1013180049464046FFF7D8FE043406442B78632B31
:10132800B8D123688DF8143000238DF815300434B3
:10133800CDF800A05B4605AA81E71D46B9F1000F6C
:1013480002D04E45BFF43EAF29784046FFF75EFE17
:1013580001369FE7CF8000080FB41FB506AB0E4CCF
:1013680053F8042B0393A36823B1E16811B10192E8
:101378009847019A039B00210846FFF711FFA368CD
:1013880023B1E36813B101909847019804B0BDE810
:10139800104004B0704700BF880300200CB41FB58C
:1013A80006AB019053F8042B039301A8FFF7F8FE4E
:1013B80005B05DF804EB02B0704710B5024CC4E903
:1013C8000001C4E9022310BD88030020012810B5DC
:1013D80038BF012001F0D2F9044620B9034A044875
:1013E800332100F05FFA204610BD00BFD680000808
:1013F800F180000808B101F08CBB704708B101F01A
:1014080088BB7047012810B538BF012001F0B6F934
:10141800044620B9034A04484A2100F043FA20460A
:1014280010BD00BF20810008F1800008FFF7E2BF6F
:10143800FFF7E4BF38B50478054664B9094B1B7853
:101448005BB10948214600F0F1FD30B1074A084870
:10145800932100F027FA002002E001246C70204656
:1014680038BD00BF00040020980300203E8100081A
:10147800F180000808B501230370084B1B785BB1A5
:101488000748002100F006FE30B1BDE80840054AD3
:101498000548A92100F006BA08BD00BF00040020D5
:1014A8009803002060810008F1800008024A034880
:1014B800B12100F0F7B900BF83810008F18000086E
:1014C800024A0348B72100F0EDB900BF9D8100082A
:1014D800F1800008002108B54170064800F0DAFDE7
:1014E80030B1BDE80840044A0448C02100F0DAB928
:1014F80008BD00BF98030020BA810008F1800008E9
:1015080001F03CB9084601F039B901F002BB0846C0
:1015180001F0FFBA13B501FB00F21046019201F089
:101528002DF9044618B1019A002102F033FA204639
:1015380002B010BD13B54A431046019201F01EF9DE
:10154800044618B1019A002102F024FA204602B09C
:1015580010BD01F039BC0846114601F035BC034AFC
:10156800034840F2211100F09DB900BFE88100084E
:10157800F180000807B5019001A8FFF711FE03B03C
:101588005DF804FB08B5034A034840F2311100F046
:1015980089F9FEE716820008F180000808B5034AB9
:1015A800034840F2351100F07DF9FEE73882000863
:1015B800F180000808B5034A034840F2391100F0E9
:1015C80071F9FEE756820008F180000808B5034A61
:1015D800034840F23D1100F065F9FEE77382000808
:1015E800F180000808B5034A034840F2411100F0B1
:1015F80059F9FEE792820008F180000808B5034A0D
:10160800034840F2451100F04DF9FEE7BD8200089D
:10161800F180000808B5034A034840F2491100F078
:1016280041F9FEE7E9820008F180000808B5034A9D
:10163800034840F24D1100F035F9FEE71983000820
:10164800F180000808B5034A034840F2511100F040
:1016580029F9FEE745830008F180000808B5034A28
:10166800034840F2551100F01DF9FEE771830008A8
:10167800F180000808B5034A034840F2591100F008
:1016880011F9FEE79E830008F180000808B5034AB7
:10169800034840F25D1100F005F9FEE7C983000830
:1016A800F180000808B5034A034840F2611100F0D0
:1016B800F9F8FEE7F7830008F180000808B5034A47
:1016C800034840F2651100F0EDF8FEE726840008B3
:1016D800F180000808B5034A034840F2691100F098
:1016E800E1F8FEE751840008F180000808B5034AD4
:1016F800034840F26D1100F0D5F8FEE77584000844
:10170800F180000808B5034A034840F2711100F05F
:10171800C9F8FEE799840008F180000808B5034A73
:10172800034840F2751100F0BDF8FEE7BF840008D9
:10173800F18000080FB4044A044808B540F2791152
:1017480000F0B0F8FEE700BFDF840008F180000871
:1017580070B500F06FF84FF47A7404FB00F501F0EF
:1017680015FC064601F01AFC7443B4FBF0F028445B
:1017780070BD38B50546FFF7EBFF0446FFF7E8FFF5
:101788000346844294BF031BE31AAB42F6D938BD23
:101798004FF47A7303FB00F29A42B2FBF3F038BFBE
:1017A80001307047104B1B7810B504465BB100F050
:1017B8003FF92146032000F04FFB00F05BF801F0F1
:1017C800D1FD002010BD00F035F80444844206D84D
:1017D80000F030F88442F4D200BFF9E700BF00F00F
:1017E80029F88442FAD8ECE700040020D0E9003256
:1017F80013605A600023C0E900337047014608B5FA
:101808003430FFF7F3FF886A4268031D9A420CD10F
:101818000C30FFF7EBFF054A8B6A926B116803F1F6
:101828000C0048601060C3E9031208BDAC03002037
:1018380070477047034BBFF35B8FD86BBFF35B8F69
:10184800704700BFAC0300200F207047084B5A6850
:1018580053E8001F01F10101002AC4BF914211465B
:1018680043E800100028F3D1BFF35F8F704700BF33
:10187800AC03002008B50A4BBFF35B8F53E8002F79
:10188800511E43E800100028F8D1BFF35B8F012AEE
:1018980001DC01F063FDBFF34F8FBFF36F8F08BD0D
:1018A800B40300201FB5CDE90210019200F0C0F882
:1018B800DDE901210398FFF7BCFFFEE738B5027B9D
:1018C800102A044605D9234A4FF4CB712248FFF762
:1018D800E9FF90F820300BB1052B03D11F4A40F2E5
:1018E8009D11F3E7002380F820301D4BD9680C398F
:1018F800994207D1586B1B4B984213D11A4A4FF49F
:10190800BF71E3E70878824209D18B68A1621A683F
:1019180004F1340050601860C4E90D2338BDE9D3E0
:10192800C968E4E7A0F10C05FFF760FF237B00F826
:101938000C3C04F13402A0F10803A56240E902223C
:10194800C4E90D330B6908610C3118604360E96024
:10195800E4E700BF148500082A85000851850008BF
:10196800AC030020E00300206F850008F8B5274C81
:10197800BFF35B8F04F13C0353E8002F013243E8C7
:1019880000210029F8D1BFF35B8F214B1B78ABB145
:10199800BFF35B8FE66BBFF35B8F1EB9D4E90932E7
:1019A800C4E909236FF00205636A1868984205D0F4
:1019B80050F8183C9E42A0F13C0100D2F8BDFFF758
:1019C80015FF91F82030042B14D10838FFF70EFFCB
:1019D800CB6A5A6853E8000F00F10100002AC4BF1F
:1019E8009042104643E80007002FF3D1BFF35F8F02
:1019F800CD6207E0072B03D10838FFF7F7FEF7E7BA
:101A08000A2BF9D00846FFF759FFCDE7AC030020B1
:101A180000040020C36B10B50446C16223B1036CF7
:101A280013B13C30FFF7E2FE2046BDE8104045E721
:101A380008B50D4BBFF35B8F53E8002F511C43E8EB
:101A480000100028F8D1BFF35B8F002A06D101F0FF
:101A580081FCBFF34F8FBFF36F8F08BDF9DA034ADC
:101A680003488521FFF71EFFB40300208B8500087B
:101A78002A85000838B51E4C54E8003FA3F101033D
:101A880044E80032002AF7D1BFF35F8F012B2ED133
:101A9800FFF7CEFF04F14005BFF35B8F236CBFF364
:101AA8005B8F002B0FDDBFF35B8F5A1E55E8001FBD
:101AB800994204BF45E800200028BFF35B8FEBD1B3
:101AC800FFF754FFE8E7BFF35B8F94F84830BFF3A4
:101AD8005B8F43B101F046FCBFF35B8F002384F8B2
:101AE8004830BFF35B8FBDE83840FFF7C3BE38BD51
:101AF800AC030020194E80B506F12C080027736C42
:101B080033B3FFF795FFF06A404523D0A0F13404C2
:101B1800FFF76CFE0C2384F82030E589736CB5FA66
:101B280085F5013B6D097364FFF7A4FE84B1606815
:101B38006760BFF35B8F00F0ECFF206B20B1276379
:101B4800BFF35B8F00F0E5FF15B1204600F0E1FF21
:101B580000BFD4E700242546E6E700BFAC03002019
:101B680037B5254C054601F069FB00230122C4E97D
:101B78000032A36001F0ACF904F10C0304F1140283
:101B8800C4E9033304F11C03C4E90733C4E9092396
:101B980004F12C03C4E90B334FF4AA7004F13403A5
:101BA800C4E90522C4E90D3300F0E8FD20B9134A61
:101BB800B2211348FFF776FE00F10C0200F5B0736E
:101BC800A16B086842600A60516042F8140B9A429F
:101BD800F6D100210B48009110234FF4907200F0C9
:101BE800EFFA10B9084ABD21E3E7284603B0BDE87B
:101BF800304001F093B900BFAC0300209E85000877
:101C08002A850008FD1A0008C685000870B5334B00
:101C1800BFF35B8F9A68BFF35B8F002A1E4605DA15
:101C28002F4A40F207112F48FFF73CFE53E8001FE8
:101C380043E8001292F0000FF8D1BFF35F8F39B17B
:101C4800BFF35B8F012283F84820BFF35B8F70BD21
:101C5800254C236893F82030012B11D120683430AB
:101C6800FFF7C4FD22682368926A9268106803F13E
:101C7800340545601560C3E90D02236883F8201018
:101C8800F56855F8083C343B2360236893F8203006
:101C98001BB1164A40F21B11C5E72368012283F8DD
:101CA800202001F027FB2368986801F0F5FA2368E3
:101CB8001A6B0F4B1AB12268126B1A6004E00D4AB6
:101CC800196812689142F8D123681A7B15F80C3C00
:101CD8009A42BCD0084A4FF49A71A4E7AC0300209A
:101CE800E48500082A850008FC030020F885000820
:101CF80004020020AC7D00081B86000808B5FFF729
:101D080097FD104B53E8002F43E8002191F0000F96
:101D1800F8D1BFF35F8F62B1BFF35B8F403353E8F5
:101D2800002F013243E800210029F8D1BFF35B8F6F
:101D380008BDFFF77DFEFFF719FEBDE80840FFF775
:101D480099BD00BFAC03002030B50368343B03F1F4
:101D58003402824201D1024603E00D7B1C7BA5427E
:101D680007D2986B01F134049C630460C1E90D202B
:101D780030BD5B6BEAE708B50368834206D01846B6
:101D8800A3F13401FFF732FD084608BD0021FBE747
:101D980008B5094A0948BFF35B8F0021D1630123C5
:101DA800BFF35B8F03709160054A126882F8203098
:101DB80001F0E4FAFEE700BFAC03002000040020B5
:101DC800FC03002008B528B9104A11484FF41371D4
:101DD800FFF768FD0F4B1A780F4B62B91A680AB9FA
:101DE800186004E01A68017B127B9142F8D3BDE8C1
:101DF8000840FFF73FBD1B68027B1B7B9A42F6D267
:101E0800FFF738FDBDE8084001F0ACBA4B86000882
:101E18002A85000800040020FC03002010B50446B1
:101E2800FFF7F8FD2046BDE81040FFF7CBBF08B527
:101E3800FFF7F0FDBDE80840FFF71CBDEAE538B53F
:101E4800044D04462868FFF7D9FC2B6883F8204026
:101E580038BD00BFFC03002038B50C46FFF7EFFF84
:101E6800ECB1164B1A68164BBFF35B8FD96BBFF3F7
:101E78005B8F6418546215D3986A03683C3B03F17E
:101E88003C01814201D1014602E05D6AAC4207D2C1
:101E9800186C02F13C041C640460C2E90F1038BDE0
:101EA800DB6BEBE7586A03683C3B03F13C0181427A
:101EB800E9D05D6AAC42EBD3DB6BF5E7FC030020AD
:101EC800AC03002038B590F82030012B0446CDB281
:101ED80009D8FFF793FC0623257384F820302046A1
:101EE800BDE83840EAE4042B0BD1C06A0830FFF79C
:101EF80042FFE06A257321460830BDE83840FFF705
:101F080023BF092B08D1C06A1030FFF734FFE06AFD
:101F1800257321461030F0E70A2B06D1C06AFFF777
:101F28002AFFE06A25732146E7E7057338BD38B50F
:101F3800C36B04460D4623B1036C13B13C30FFF765
:101F480055FC94F82030012B02D82046FFF756FCA8
:101F580094F82030072B0AD104F13400FFF746FC2F
:101F6800DDB1082384F82030BFF35B8F38BD042B24
:101F780010D1E36A5A6853E8001F01F10101002AF1
:101F8800C4BF9142114643E800100028F3D1BFF3C3
:101F98005F8FE1E70A2BE3D1DEE7052384F82030E1
:101FA800064B1A6B116804F1340048601060C4E9EC
:101FB8000D125A6C01325A64D6E700BFAC030020F8
:101FC800F8B50F461546002400F108063046FFF71D
:101FD800D2FE034630B964B15DB92046BDE8F84089
:101FE800FFF7F0BE3946002C08BF1C46FFF726FF56
:101FF800ECE7BDE8F840FFF73DBC70B5061E18BF1A
:102008000126141E0D4601DA002070BD20B91420E7
:1020180000F0B4FB0028F7D000F1080300220261A9
:10202800C0E90054C0E902330674EEE737B5044648
:10203800019140B3FFF7FCFC54E8003FA3F1010312
:1020480044E80032002AF7D1BFF35F8F002B16DA7D
:102058000E4D01990420FFF7FFFE296804F10800DE
:10206800FFF772FE2B68DC62FFF704FC084B1B7855
:102078000BB101F077F92B68D86A03B030BDFFF7D0
:10208800F9FB0020F9E76FF00300F6E7FC030020F6
:102098000004002038B50C46054640B3FFF7C8FCDD
:1020A8006B6855E8002F02F10102002BC4BF9A4269
:1020B8001A4645E800210029F3D1BFF35F8F002AB3
:1020C80012DC05F10800FFF756FE68B190F82030E1
:1020D800042B09D124B92146FFF7A0FE002038BD02
:1020E8000021FFF7A4FEF9E7FFF7C4FBF6E76FF05E
:1020F8000300F4E788B150E8002F1346013A48BFBF
:10210800013240E800210029F5D1BFF35F8F002B91
:10211800CCBF00206FF0050070476FF003007047D8
:1021280037B50C4601920546D8B1FFF781FC6B68BC
:10213800019A002B02DD9C42A8BF1C4624EAE474E5
:1021480055E8003F45E8004191F0000FF8D1BFF392
:102158005F8F6FF008012846FFF732FF002003B0B9
:1021680030BD6FF00300FAE750B150E8003F40E897
:10217800003292F0000FF8D1BFF35F8F1846704716
:102188006FF00300704738B5054670B1FFF750FC93
:1021980000226FF009012846FFF712FF2C7C14B9C2
:1021A800284600F0B6FC002001E06FF0030038BDBF
:1021B800024B1B780BB101F0D5B870470004002022
:1021C8002DE9F84F0A9E1F4682468B461546FFF7B3
:1021D8003BFBB84205D2102F03D000242046BDE8AF
:1021E800F88FB5F5907FF8D36A0718BF25F0070573
:1021F8004FF0440018BF083500F0C0FA0446002824
:10220800EBD04422002105F1200901F0C3FB484628
:1022180000F0B4FA606018B9204600F07AFCDCE7F8
:10222800F3070CD5F02000F0A9FA206318B960680C
:1022380000F06FFCF0E7F022002101F0ABFB6068D2
:10224800A06009EB00032A462360552101F0A2FB98
:1022580004F1100316F00205C4E9043304F118036D
:10226800C4E9063314BF0823022320682773677361
:1022780084F820305A46514601F056F9C6F3C00694
:102288002060E681002DA9D1FFF7D2FB2946204620
:10229800FFF7C4FDA2E7164B1B7870B505460E463E
:1022A800FBB1FFF7D1FAB0421ED3FFF7C1FB0DB95E
:1022B800104B1D686C7BA64203D1FFF7DBFA0020A8
:1022C80070BD2B7B6E73A34201D0B34205D9314652
:1022D8002846FFF7F7FD01F045F8FFF7CBFA20464F
:1022E800EEE76FF00A00EBE76FF00600E8E700BFE3
:1022F80000040020FC03002010B5044608B90F4B69
:102308001C68FFF795FB94F82030052B01D00C2BA7
:1023180003D1BDE81040FFF7ADBA204601F050FAEE
:1023280000212046FFF703FE044B1B68A342F0D1AF
:10233800FFF7A0FABDE810403AE700BFFC03002011
:10234800014B1868704700BFFC03002010B5044615
:1023580008B90D4B1C68FFF76BFB636823B9FFF7DF
:1023680089FA6FF0110010BDDA0618BF203323F088
:102378001F03203300241A5D552A03D0FFF77AFA89
:102388002046F0E70134F6E7FC03002008B9024BC9
:102398001868407B704700BFFC03002008B9024B57
:1023A8001868007B704700BFFC03002008B9024B87
:1023B800186890F820007047FC03002038B50446E0
:1023C8000A4DFFF735FB04B92C6801212046FFF7B9
:1023D800AEFD2B68A34204D1FFF74CFABDE83840A4
:1023E800E6E6BDE83840FFF745BA00BFFC03002029
:1023F8000D4B1B68834210B5044611D080B1FFF71E
:1024080017FB94F82030082B05D120460021FFF750
:1024180005FD002010BDFFF72DFA6FF00A00F9E75F
:102428006FF00300F6E700BFFC03002010B5044678
:1024380008B9094B1C68FFF7FBFAE3894FF6FF72EE
:1024480093421BBF0133E3816FF003040024FFF7BD
:1024580011FA204610BD00BFFC03002038B5044621
:1024680008B9114B1C68FFF7E3FAE3892BB9FFF7AA
:1024780001FA6FF00305284638BD013B9BB2E381A2
:1024880083B994F82050A5F10C035D425D41BFF378
:102498005B8FFFF7EFF9002DEDD0204600F039FBF8
:1024A8000025E8E70025F2E7FC03002038B5174DC2
:1024B8002B688342044625D020B3FFF7B9FAE38995
:1024C80023B9FFF7D7F96FF00E0038BD94F8203024
:1024D800052B01D00C2B03D1FFF7CCF90020F4E732
:1024E8000B20FFF7ACFCE2692B68116803F134009C
:1024F80048601060C3E90D12FFF7BCF9FFF758FEFA
:10250800E06AE2E76FF00300DFE700BFFC030020AA
:10251800114D08B5FFF78CFA2A68906950F83449CC
:102528000026343C2B6800F1340218339A4205D156
:10253800FFF7A0F90020FFF7DFFEFEE7D0E90D3234
:10254800002113605A60C0E90D66FFF777FC636BE2
:102558002046A3F13404E5E7FC03002042110123DF
:1025680000F01F0003FA00F051F82230034341F84D
:10257800223070474211012300F01F0003FA00F0D7
:1025880051F8223023EA000341F8223070477F28AF
:1025980010B504D8002380080B60106010BDB0FA95
:1025A80080F3C3F11F04C3F11A03D84020380C602C
:1025B80010600B68063B0B60F0E708B9014B186820
:1025C800006A7047F803002008B9024B1868406A8F
:1025D800704700BFF80300200023036070470728F6
:1025E8002DE9F7430C4675D9073020F007057F2DF4
:1025F80072D800230093AB0801930098019904EB6B
:1026080080034FF0FF325B6B02FA01F119407BD077
:102618004B420B40B3FA83F3C3F11F03019303EB5F
:1026280040131A3354F82360002E7AD0DDE90010E5
:1026380000EB4112F3681A3244F82230002B00F004
:10264800838000229A60736823F00303581B4FF0BD
:10265800000906F108080F28C6E9029908EB0302E9
:1026680040F2838008EB0507083840F001027A60E1
:10267800694648F8037001AAFFF789FFDDE90010F1
:1026880000EB411304EB8303C7F808909A6EFA60D5
:1026980002B197600D319F6604EB8101FFF75EFF81
:1026A800009804F13001FFF759FF736803F0020343
:1026B8001D4375607168A26A236A21F00301083A14
:1026C800521A0833A262626A0B449342236288BF9B
:1026D800636228E008258CE7B5FA85F2C2F11A038F
:1026E80001229A40531E5D1916BFB5FA85F32B4691
:1026F800C3F12003991F25FA01F12039073B524203
:1027080001910093154078E7431C9A40236B1A40C7
:1027180053421340B3FA83F3C3F11F02002A009215
:1027280005DC4FF00008404603B0BDE8F08304EB39
:102738008203596B4B420B40B3FA83F3C3F11F0377
:10274800019303EB42136CE70D3104EB8101FFF7B2
:1027580011FF009804EB80035B6B002B7FF473AFD1
:1027680004F13001FFF706FF6DE7536823F0020319
:102778005360736823F0010373609BE770B5114ED3
:10278800114D327804464AB12868043000F01EFF23
:1027980020B10E4A0E482621FFF784F82D682046FE
:1027A8002946FFF71CFF3378044643B1281D00F083
:1027B80083FF20B1074A06483121FFF773F8204606
:1027C80070BD00BF00040020F803002064860008E4
:1027D80078860008A7860008F7B50022CDE9002210
:1027E8000D460746002879D050F8044C44F0010300
:1027F80040F8043C0B6A24F003041B1B083B0B62E3
:10280800AB6A04F1080104440B44AB62C0E900223E
:10281800606810F0010F05F1300631D001AA694651
:1028280020F00300FFF7B3FEE3680BB1A2689A60DB
:10283800A26802B1D360DDE9001000EB411305EB9B
:1028480083039A6EA2420FD1E2689A6662B90D318B
:1028580005EB8101FFF78EFE009805EB80035B6BAB
:1028680013B93146FFF786FE0023C4E9023357F84F
:10287800042C6368083223F00303134447F8043C2C
:1028880057F8043C9B072BD4A7F10804606801AAF9
:10289800694620F00300FFF77AFEDDE90010002307
:1028A800A36000EB411305EB83039A6EE26002B16B
:1028B80094600D319C6605EB8101FFF74FFE00988F
:1028C8003146FFF74BFE636804F1080123F0030368
:1028D800C818426842F002024260CC5003B0F0BD12
:1028E80057F8084C606801AA694620F00300FFF712
:1028F8004EFEE3680BB1A2689A60A26802B1D36089
:10290800DDE9001000EB411305EB83039A6EA24248
:102918000FD1E2689A6662B90D3105EB8101FFF7C4
:1029280029FE009805EB80035B6B13B93146FFF76E
:1029380021FE0023C4E9023357F8043C626823F0FF
:102948000303134408336360A0E7F8B505460C4653
:10295800002950D0B0F5E56F4DD311F003014AD1ED
:102968002368264EB342264B1C6004D1D4F8EC06EB
:1029780020F00300F8BD4FF4DD62204601F00AF8AC
:10298800204640F8046B00F009FE20B91D4A1E4895
:102998001D21FEF787FF0823C4F8EC36A5F5DD6393
:1029A80023F00703203B04F5E060C118002204F57A
:1029B800DF66C4F8FC36C4F80427C4F80027C650FC
:1029C80002234B60D4F8EC66C4F8F01604F5DE6711
:1029D80026F003063E4406F10800C4F8F426214612
:1029E800FFF7FAFE7068E76220F003002D1AC4E9C9
:1029F8000855A062BEE74FF0FF30BBE759FA592AE5
:102A0800F8030020BD860008788600082DE9F0410B
:102A180004460E4615460A46002100F0BBFF082270
:102A2800EB6A6260A6F1200222F0070204F11806A0
:102A3800B018002104F110076261C4E90611B7500B
:102A480002224260A0466268E16048F8080F22F05E
:102A58000302904408F10806D8F8042022F0030283
:102A68001644D5F82CE07BB9C4F80CE044F8086F9C
:102A780008F10800EC622946FFF7AEFED8F804001A
:102A880020F00300BDE8F0811F4606F1080C57F856
:102A980008095A6867451BD153F8047CD8F80460C4
:102AA80027F0030726F003063E44734506F1100697
:102AB80018BF4A6026F0070614BF5A68EA62C8F8C9
:102AC800046043F8078006460B4619461346C8E7D4
:102AD80000F1080CA445F8D173451CBF4A605A6838
:102AE8006468D8F8043008BFEA6224F0030423F0CD
:102AF800030323444468103304F0020423F007035B
:102B08002343436023F0030380464CF803003C460C
:102B1800DAE770B5104C114E227805464AB1306894
:102B2800043000F053FD20B10D4A0E482621FEF76F
:102B3800B9FE366828463146FFF74EFE237853B172
:102B4800301D00F0B9FD30B1BDE87040064A0548B7
:102B58003121FEF7A7BE70BD00040020F803002055
:102B68006486000878860008A78600082DE9F743E0
:102B780088461446054648B921B111464046FFF734
:102B88002EFD0546284603B0BDE8F08321B911465D
:102B9800FFF722FE4546F5E750F8047C27F00307C7
:102BA800072900EB070688BF01F10708814688BF9F
:102BB80028F00708706898BF4FF00808474500F0EC
:102BC80001027DD3236A083BDB1B2362A36A3B44D3
:102BD8000833A36282B301AA694620F00300FFF715
:102BE800D6FCF3680BB1B2689A60B26802B1D360E0
:102BF800DDE9001000EB411304EB83039A6E964263
:102C080010D1F2689A666AB90D3104EB8101FFF7B9
:102C1800B1FC009804EB80035B6B1BB904F1300135
:102C2800FFF7A8FC0023C6E902337368083723F0CE
:102C3800030308361F441E44A7EB08000F282DD9AC
:102C480005EB0807083840F001037B6073683760BC
:102C580043F00203736001AA6946FFF798FCDDE9B7
:102C680000100023BB6000EB411304EB83039A6E52
:102C7800FA6002B197609F660D3104EB8101FFF79E
:102C88006DFC009804F13001FFF768FC55F8043C2E
:102C980003F0020343EA080345F8043C55F8041C12
:102CA800A26A236A21F00301083A521A0B44A2626D
:102CB800626A08339342236200D963624D4661E732
:102CC800002A6BD020F003003B18984566D8236A89
:102CD800083BDB1B2362A36A1F440837A76201AACB
:102CE8006946FFF754FCF3680BB1B2689A60B268A2
:102CF80002B1D360DDE9001000EB411304EB83035C
:102D08009A6E964210D1F2689A666AB90D3104EB50
:102D18008101FFF72FFC009804EB80035B6B1BB964
:102D280004F13001FFF726FC736855F8042C23F0F2
:102D38000303083213440027C6E9027745F8043C28
:102D480023F00303EA18A5F10801E950516821F0BE
:102D58000201516055F8040C20F00300A0EB0800B4
:102D68000F289BD905EB0806083840F0010171606F
:102D7800EE50536843F002035360694601AAFFF717
:102D880006FCDDE9001000EB411304EB8303B76098
:102D98009A6EF26002B196609E666DE721464046E3
:102DA800FFF71DFC8146002888D055F8042C22F036
:102DB80003024245294628BF424600F0DDFD214670
:102DC8002846FFF709FD79E7F8B5124F124E3A7811
:102DD80004460D464AB13068043000F0F7FB20B1D4
:102DE8000E4A0F482621FEF75DFD3668204632461A
:102DF8002946FFF7BBFE3B78044643B1301D00F07F
:102E08005BFC20B1074A06483121FEF74BFD2046FE
:102E1800F8BD00BF00040020F80300206486000805
:102E280078860008A786000813B50C46114678B1C5
:102E38005CB104FB00F210460192FFF7D0FB044698
:102E480018B1019A002100F0A5FD204602B010BD7E
:102E58000446FAE7F8B5124F124E3A7804460D4682
:102E68004AB13068043000F0B1FB20B10E4A0F4877
:102E78002621FEF717FD3668204632462946FFF719
:102E8800D3FF3B78044643B1301D00F015FC20B158
:102E9800074A06483121FEF705FD2046F8BD00BF68
:102EA80000040020F80300206486000878860008E3
:102EB800A786000808B9024B1868806A704700BFE7
:102EC800F803002050F8040C20F00300704700BFFE
:102ED8000749084808B5401AFFF737FD013006D101
:102EE800BDE80840044A05482821FEF7DBBC08BDB8
:102EF8000804002000000220D3860008F586000898
:102F080010B504460020FFF758FB60600020FFF76B
:102F1800D1FF01232060A36010BD00BF10B5044697
:102F2800012000F0E3FC012000F0E2FC134B9C427E
:102F380004D8134A13482521FEF7B4FC21464FF460
:102F48007A7000F067FA20B90F4A0E482821FEF778
:102F5800A9FCFF214FF0FF3000F0F9F8FF216FF0D6
:102F6800040000F0F4F8FF216FF0010000F0EFF822
:102F780000F06CFABDE8104000F078BA3F420F004C
:102F8800268700084F87000884870008024B1868C6
:102F980004331B68C01A704714E000E0014B18683E
:102FA800704700BF14E000E0114B1B68C3F3022315
:102FB800C3F1070282B0191D042AADF8040028BF26
:102FC800042206294FF0FF3101FA02F09DF804208F
:102FD8008CBF033B002322EA00029A4001FA03F364
:102FE8009DF8051021EA030342EA030002B0704786
:102FF8000CED00E007B5ADF804000198FFF7D4FF29
:10300800C0B203B05DF804FB00280346B8BF00F166
:103018001F035B1142424FEA830302F01F0203F1D0
:10302800604300F01F0003F5614358BF504201227E
:1030380002FA00F01860704700280346B8BF00F194
:103048001F03424202F01F0200F01F0058BF504207
:10305800012202FA00F05B11014A42F8230070478E
:1030680080E100E000280346B8BF00F11F035B11B0
:103078009B0003F1604303F5614300F01F001A68E9
:10308800012303FA00F0104214BF184600207047CD
:1030980000280346B8BF00F11F035B119B0003F132
:1030A800604303F5624300F01F001A68012303FA26
:1030B80000F0104214BF184600207047002803464D
:1030C800B8BF00F11F035B1142424FEA830302F0CD
:1030D8001F0203F1604300F01F0003F5624358BF6D
:1030E8005042012202FA00F0186070470028034697
:1030F800B8BF00F11F03424202F01F0200F01F0098
:1031080058BF5042012202FA00F05B11014A42F80E
:103118002300704780E200E007B5ADF8040001988D
:10312800FFF742FF80F3118803B05DF804FB07B591
:10313800ADF804000198FFF737FFEFF3118080F333
:103148001188BFF36F8FC0B203B05DF804FB00288D
:10315800ADBF00F16040044B00F00F0000F5644083
:10316800B4BFC1540170704714ED00E00028ABBF34
:1031780000F1604000F00F0000F56440024BACBF66
:103188000078C05CC0B2704714ED00E013B5ADF82C
:10319800041004460198FFF707FFC1B2204602B0A9
:1031A800BDE81040FFF7D3BF00280346B8BF00F1C1
:1031B8001F035B119B0003F1604303F563431A6827
:1031C800434203F01F0300F01F0058BF5842012379
:1031D80003FA00F0104214BF184600207047EF2889
:1031E800DFBF024B1A6810431860704700EF00E019
:1031F800044B1A6818B142F010021A60704722F0A6
:103208001002FAE710ED00E0034B40F0BF6040F415
:1032180000301860704700BF0CED00E0014B024A17
:103228001A60FEE70CED00E00400FA05024B20F0FE
:103238007F001860704700BF08ED00E00F4B1B6867
:1032480013F47F4F19D00E4A0E4B13600E4B0F49E3
:103258001960112111600E4A0E491A6000220A6095
:103268001A6842F001021A6001220A601A6842F0E4
:1032780001021A60052243F80C2C704790ED00E01B
:103288009CED00E010000020A0ED00E032000713E4
:103298002800001098ED00E0C306124B1A6818BF0A
:1032A800203012F47F4FC2F307231AD072B60E4AA9
:1032B800013B1360916821F0010108321160BFF3EE
:1032C8004F8FBFF36F8F20F01F001843074B40F05C
:1032D80010001860064B1360BFF34F8FBFF36F8F5A
:1032E80062B6704790ED00E098ED00E09CED00E0DC
:1032F800090000100A4B1A6812F47F4FC2F3072323
:103308000CD072B6074A013B1360936823F001039F
:103318009360BFF34F8FBFF36F8F62B6704700BFE4
:1033280090ED00E098ED00E0684620F007018D463A
:1033380001B5FEF7E3FC054B1B781BB1044B4FF0BE
:1033480080521A60BDE8014085467047000400209D
:1033580004ED00E0102383F311887047002383F302
:1033680011887047044B4FF080521A60BFF34F8F9B
:10337800BFF36F8F704700BF04ED00E00C4C0D4A9F
:103388002168914204D10C4A0C484B21FEF78AFA75
:1033980022680B4B9A4204D10A4A08484E21FEF78C
:1033A80081FA09480068006880F3088800DF00BFD8
:1033B80000ED00E071C20F41AE870008D787000812
:1033C80070C20F410F88000808ED00E0024B20F0A2
:1033D8007F401860704700BF14E000E0024B186897
:1033E80020F07F40704700BF14E000E0024B1868EF
:1033F80020F07F40704700BF18E000E0044A1368DF
:1034080000F0040023F0040303431360704700BF77
:1034180010E000E008B5B1FBF0F10A4B99420FD873
:103428006FF07F4399422ABF00200420C908FFF7A4
:10343800E5FF054B013921F07F411960012008BDE6
:103448000020FCE7F7FFFF0714E000E0024A1368DA
:1034580043F002031360704710E000E0024A13686B
:1034680023F002031360704710E000E0024A13687B
:1034780043F001031360704710E000E0024A13684C
:1034880023F001031360704710E000E0024B186856
:10349800C0F30040704700BF10E000E0014B00227D
:1034A8001A60704718E000E0024B186820F07F406F
:1034B800704700BF1CE000E0BFF32F8FEFF30980D7
:1034C800114B1A681EF0100F08BF20ED108A20E972
:1034D800F04F10602DE908404FF0100080F311887C
:1034E800FEF794FB4FF0000080F31188BDE8084018
:1034F80019680868B0E8F04F1EF0100F08BFB0EC6C
:10350800108A80F309887047FC030020054B19686E
:103518000868B0E8F04F80F309884FF0000080F3A6
:1035280011887047FC0300204FF0807340E90213B4
:10353800054B40F80C3C6FF0020340F8202C40F893
:10354800243C4438704700BF19250008D0E90032F0
:1035580013605A600023C0E900337047036810B550
:10356800044623B10A4A0B482121FEF79BF9236838
:1035780001332360084B1A681B6862601B691A686C
:1035880004F1080151601960C4E9022310BD00BFAD
:103598003888000852880008FC030020031E10B574
:1035A80014BF0124002404D11C20FFF7E7F80346C8
:1035B80050B11C221846002100F0ECF900F110026D
:1035C800C0E9042203460476184610BD38B50446FF
:1035D800002839D0FEF72CFA6368002B30D0236816
:1035E800002B04DC1A4A1B484721FEF75BF91A4DE9
:1035F80060682B68984206D1236801332360FEF780
:1036080039F900201BE02B681A7B037B9A4203D20E
:103618002B68197BFEF756FC0920FEF710FC296879
:1036280004F11000FEF790FB2B68DC62FEF722F92C
:103638000A4B1B780BB1FFF795FE2B68D86A38BD8B
:103648002046FFF78BFFDAE76FF00300F7E700BFCC
:103658007588000852880008FC0300200004002038
:1036680038B50446F8B1FEF7E3F96568A5B12368F3
:10367800002B04DC0D4A0E487421FEF713F90D4B9C
:1036880062681B689A420BD12368013323600025C6
:10369800FEF7F0F8284638BD2046FFF75FFFF7E74A
:1036A8006FF00B05F4E76FF00305F3E79388000864
:1036B80052880008FC030020F8B50446002873D09F
:1036C800FEF7B6F963682BB9FEF7D4F86FF00D056D
:1036D8002846F8BD2368002B04DC354A3548962176
:1036E800FEF7E0F8344E626833689A4204D0FEF779
:1036F800C1F86FF00B05EBE72568013D2560002D4B
:103708004ED133681B693768083B03F1080210374C
:10371800BA4206D13BB9294A2648A621FEF7C2F883
:1037280002E0A3422CD117463846FFF70FFF226963
:1037380004F110039A4231D03368597B33681B690E
:103748003268083B03F10800103290421AD1306801
:10375800FEF7B8FB20690123A0F1340623606660F8
:10376800FFF7F4FE50F8243C1A6804F10801516090
:1037780030461960C4E902230021FEF74FFBA7E792
:103788009B68C0E71A4652F8100F904204D010F810
:10379800282C914228BF11469B68D1E7002363601B
:1037A800FEF768F8002593E76FF0030590E700BF80
:1037B800AA88000852880008FC030020BD88000879
:1037C8002DE9F0470446FEF733F954F8101FA142DB
:1037D80036D051F808690025083EA9464FF0010A7D
:1037E80001F10807BC4205D155B32846BDE8F047AA
:1037F800FEF7E8BA0B4653F8100F98421AD0A0F11A
:103808003408C1F800A0C1F80480FFF79FFE50F803
:10381800243C1A68404657601F60C1E90223002112
:10382800FEF70CFB002D08BF4546B3683146A3F1EF
:103838000806D5E73846FFF789FEC1E90099F4E79D
:10384800BDE8F047FEF716B8014B1868FFF7B8BF98
:10385800FC0300202DE9F8430446A0B3FEF7E8F87E
:1038680063681BB104F10800FFF770FEA04600264C
:1038780058F8105F55F83479343F05F13409C145DB
:103888000AD1EEB13046FEF79DFA257E15B92046DD
:10389800FFF73FF9002018E0697B2846FEF712FB86
:1038A8004846FFF753FE28466FF00901FEF7C6FAAF
:1038B8007B6B002E08BF2E463D46A3F13407DCE79C
:1038C800FDF7D8FFE1E76FF00300BDE8F883064B8A
:1038D80019681A680969103291421DBF1B68186976
:1038E80008380020704700BFFC030020704770476D
:1038F80070477047704770477047704770470B466E
:1039080001461846FCF7EFBE38B5074D074C641B57
:10391800A4101CB9BDE83840FCF7E3BE013C55F8DB
:1039280024309847F5E700BFE0880008E0880008E1
:1039380070B50D4D0D4C641BA4100026A64209D18C
:103948000B4D0C4CFCF7CCFE641BA4100026A642C1
:1039580005D170BD55F8043B98470136EEE755F898
:10396800043B98470136F2E7DC880008DC88000849
:10397800DC880008E08800080A44914200F1FF331F
:1039880000D1704710B511F8014B03F8014F91426F
:10399800F9D110BD02440346934200D1704703F8A1
:1039A800011BF9E710F8012B11F8013B012A28BF88
:1039B8009A42F7D0D01A704710B504460068FEF74F
:1039C800E2FB204610BD000007B53A4C2079BFF352
:1039D8005B8F10F0010513D1201DFDF72BFD78B189
:1039E800012211462846FEF708FB0346204640F808
:1039F800043BFDF73FFD304A30492046FFF77FFF83
:103A08004FF4FA70FDF7C4FEFDF7CCFE2C4B2D4A9F
:103A18002D480021FDF7D1FC4FF4E1312B48FDF78B
:103A280085F82B4B4FF400521C6892FAA2F1B1FAB8
:103A380081F192FAA2F503204900B5FA85F500FA5A
:103A480001F124EA01016C00012505FA04F421437F
:103A580019609C6892FAA2F1B1FA81F1A94000FAC2
:103A680001F124EA010192FAA2F49960DC6892FA61
:103A7800A2F1B1FA81F1A940884024EA000092FA43
:103A8800A2F2D8605A6822F400525A60FDF7DCFEB0
:103A98000021034600914FF4C0620E48FEF790FBE8
:103AA800FCF790FB5A2201460B48FDF755FCFEF740
:103AB8006FF900BFF802002000020020C139000899
:103AC800AF010008BD010008AB010008137E000823
:103AD800000C02402F0200081B7E0008024800224A
:103AE8000121FEF78ABA00BF9803002008B5034AEF
:103AF8000348DD21FDF7D6FEFEE700BFDB810008A5
:103B0800F18000083A7B0500B5FE060099D407004D
:103B18006D3A0C008B3EFFFF98DC0A00F435030079
:103B2800B36A0D00EEB9F1FFA4C5FCFF0F95FDFFC8
:103B3800BC610C00821E0A00509AFCFF00FFF3FFD4
:103B4800B53DFEFF1A2AFDFF3D2AFEFFF6C1000023
:103B58008CD50D009E1A0A0065C7070060D40D00B9
:103B6800A9060900F7400300A92FF1FF6C11F2FF25
:103B7800B74FF9FF5392FEFF8BE9F9FFD3DB0B0038
:103B8800D53F01003028FFFFECD2FAFF88CE0500B0
:103B98003FFB01002BF0F1FFB2D50A006849F6FFA0
:103BA800ED5605006CB8000010630D007357010056
:103BB800A1DA0900D272F1FFEB7702006C7BF9FF02
:103BC8008CE7FCFFFAC10B0094FCF0FF7F81040036
:103BD800E5A9FEFF4DB1FBFFE2FC0500FEF2FFFF89
:103BE8004D330200725BFAFFDAD7FFFF68EC0D0075
:103BF8000A360900F41300007D530300A885060067
:103C080016E40B009BC0FBFF33C9F0FFA8BF0100FF
:103C180018EF0000BA550400E6610000B1C10B00BE
:103C280062DFFBFF43EB0C00D80E090025710C0086
:103C380057C6FEFFC930F7FF8A86F2FF468CFAFFA7
:103C4800DF850E008FE7F3FFE5B40000AC95FAFFBF
:103C5800661806009D360A008745FDFF1688F7FF9F
:103C6800C063070028B60A00E1C20800321C000041
:103C78007EC60700FEFAFBFF142AFCFF869EFDFFA6
:103C88002F940D0077510B00B0080000B90505000E
:103C9800E997F1FF43D9FDFF9536FEFF8DACFFFF95
:103CA800E0A90B00E580020097C30900E4F90500CC
:103CB8004E580B000E36F4FF26AC0000C81D01005C
:103CC8007A5A0100BD32070035AFFDFFE618010042
:103CD8004E02FAFF4CC8F8FF87FAF9FFB0D1F2FF9D
:103CE80027EDF2FF29D50B0082E8FCFFDA45F8FF43
:103CF80065EEFDFF35EFFDFFE9180F000EB6020077
:103D080058A100008F9EFCFF7762F6FFFD7B05003F
:103D1800821FF3FF52F6F3FF71240F00FC560200D6
:103D2800F366F5FF0F0B08004BA9F9FF70E4F8FFE5
:103D380006280F000592F3FFC30903009607FAFF50
:103D48009ECBF3FF018A020051B9F2FF010A0D0070
:103D58008B3C0D000933020038DDF8FFC82E0C003B
:103D68002F3D040054F8FBFFED640B002806F4FF18
:103D7800AD5FF4FFC8F903000B3FF8FF838603002B
:103D88000C58FDFFF9CEF1FF842CF8FF3EBD010071
:103D980088630600915A0B000BB60900D320F2FF86
:103DA800AD3BF7FF026BFEFFF8A4F2FF780EF1FFC0
:103DB800AFE4FAFFF8D80E006D4FF6FF60F90D007A
:103DC800360B0200A1EB0500F7B906003DF90B0020
:103DD80014AF0A001AFA0B0030360300A2F20E00E4
:103DE80076840100E6FF0B006A4BF3FF287402009B
:103DF8007BDA0E00BE0BF6FF10BD050007060400B7
:103E08004607040003A80B0021D6F3FF4C2EFBFF46
:103E18003BAE0200665D0300D8F9FFFF3B840B0050
:103E2800ABD502003F720500283601006F6CFEFF1B
:103E38007E17F3FF3A38070068EBFAFF4AD104000F
:103E4800E73F04008A4C090066500900F3E4F8FFD4
:103E58006D61F1FF1A120B009E7E070078C1000009
:103E6800BEE3FFFF61520000DE690300228CFBFF06
:103E7800D699F7FF9308FDFF367EFBFF98A409004B
:103E88002B44F6FF21910300CAFEF7FF0206F4FF58
:103E98003248F8FF29FDFBFFD47CFAFF05B6F8FF8E
:103EA800BF1903004DB9F8FF0F10F8FF718BF7FF2A
:103EB800C52D05008D3401000E08FEFF544AFAFF97
:103EC800C5D30600280F0B00FF92FEFF10A8F7FFCE
:103ED800DF8BF3FF47BAF9FF88840900151EFDFF41
:103EE800F0C9F7FFF856F8FF653E0100FE450000EF
:103EF800ABB00A00E5E2F2FFE9FC0300CB5EFFFF8E
:103F08005D3DFFFF46F1F9FFEEC60300C7ED0C006B
:103F1800F0820200BED10D0014CB0100B04CFDFFB1
:103F2800813D05004006FDFFF207F4FF8C980B0069
:103F38002E950900E8200400E9130B0065DB040056
:103F4800BFE8020051DDFBFFFEA5F5FF61C40200DA
:103F5800FE1D0100B636F9FFF6D9F0FF15C30500BE
:103F680094DCFDFF80ED0A00DCD4FAFFE136F2FFB5
:103F7800098CFAFFD17BFAFF2C120400E06CF4FFE5
:103F88002B1DFCFF17C9070066400500D3BAF4FFD4
:103F980083F7040023EC0700BC2E0B001E06030069
:103FA80075A00000B39A0800D8460200302DF4FF2F
:103FB800010906000A80F7FF5A65070006380B005A
:103FC8007A28F3FFE3B8FBFFCB53F8FF772BF4FF16
:103FD800440F0900D5750700F839FDFF61BAFEFFE7
:103FE8009AE7F3FFD4760500FA35FCFFC77A01009B
:103FF8003458FDFF684400001B620400BC55F9FFFB
:1040080069BB0300C004FBFF353A070049CAF5FF46
:10401800A2780C0028A505007AE8F3FF4879070084
:104028001958FAFF67ED0E0033BD0E00D3920B004E
:10403800616D06002E6B0000E9480900C6170300F1
:1040480048E2F0FF2B88FFFF2BEEF6FF8CF0020012
:10405800011C0500E505F5FFAA2DFBFF42C1F2FF93
:1040680047EEF3FF26F9F7FF26CAFFFFCDC30D0081
:10407800672E010098BB08005A23FCFFB659FBFFC6
:104088006E00F6FFDDADF9FF53EFFFFF08E2050014
:104098000BF50A003F39F8FF2685F4FF5C66060039
:1040A80074FAFEFFB0910500E4FF0C0048710100AE
:1040B80076A1FDFF484C0C004BBC01008D02F6FFB9
:1040C80074270E00078AF4FF776EFEFF5204F4FF90
:1040D8006794000069B8F2FF292FF7FF0DAB0E00B7
:1040E800EBE1FAFF63BAFAFFFC3D0F007F110B000A
:1040F80001240B00E614F3FF72CC0C00F38E0700CA
:104108009127FCFFF937F4FFFA96FDFFA7A70400F3
:10411800B5C1FAFF46A50200F1540700AB4B0A00EF
:10412800B2A700000B5AF5FFC5D4F8FF6E66FFFF73
:104138000A18FAFF503B070034140800AE60F7FF76
:104148000A790A00579EF1FF6ADEF3FF4C57020016
:104158005D1706007D0D0B002B60F6FF91B2F3FF93
:10416800B1B8FEFFE588FBFF8C3F0F00F4F6F1FFC6
:104178005A88F9FF47C6F9FFFEE8F6FFCFA0FCFF13
:10418800FB590000B1760E00B282FCFFB4F7FDFFC8
:1041980097FAFCFFC47A00003D47F8FFC85CFEFFB1
:1041A800B777FCFF40200F00A249FDFF10960500DD
:1041B800168F0100C55A000042080A0023BAFCFF06
:1041C800668F0200E27F0E00D35E0900FED1FCFF7D
:1041D800DFF40900C5B30C009AC2FCFF47D9F9FF08
:1041E800A71B0500AEEAFFFFF67FF7FF37F4F8FFDD
:1041F80009F30E00180C0800DEC80E0072ACF7FFB9
:1042080004B20B00CD5CF8FF09920800C1B90500A3
:104218002015F5FFA09E0E0041D907008C89FEFFEE
:104228000CEDF5FF8E14000079B8FFFF3E0D0C0071
:10423800E40EF8FF129FF1FF34D7020043C40300D5
:10424800DA98000085A1FAFF2D5C0000C0FBF3FF9F
:10425800C06AF9FFDF310D0097E7FDFFE971010042
:10426800D3E8F7FFBD74F1FF67FA0B00509D00001B
:10427800136AF1FF74DBFAFF5FAEFAFF7300050003
:104288009F340200BD68F4FFCB1A07000AA5F3FFAC
:104298004D5CF4FF3C090A00C60609004248F6FFD7
:1042A8000C4DFAFFDC4CF8FF563801002AC0FFFF1E
:1042B800EA280400D5210B00D99E0A00CC1FFBFF79
:1042C800C7E70C00931EF8FF9C28FBFF2157060048
:1042D800EF0BFFFF4D67F9FF4C130300E927F7FFCA
:1042E8004639F3FF0531010096DCFBFF77910B009F
:1042F800DE8501005B4BFAFF7AA60D0032EE0B005B
:10430800AF65030069E70B00AB160A0092400E0088
:104318000E14F9FF93CEFDFF8FF00E00DAEAF4FFDA
:104328006AA60B00036F0B00354EF5FFBC12F7FFB2
:10433800BC3F0100516E060009460000081C080039
:10434800360EF3FF65D90200D95E0800BE0DF5FFF1
:104358004AEBFEFF43F20800D3270200E2650E0095
:10436800B58F0900F34D0700C96D0300877E07006C
:10437800A0CBFFFF6BCDF7FF2497F7FFE710F2FF05
:104388000C22FEFF1A50F4FF9869F7FFF00BFCFFB0
:104398004739FBFF1DE1F0FF1CD60900736E0C00C6
:1043A8000DB10300C57E0B00A41B0A003C57FFFF9C
:1043B8006F5A0B009027FBFFD20FF3FF527F0B00C1
:1043C8003EE8F2FF70380D007948FBFFA4C50100F4
:1043D800EF9D02000CCAFEFFC96FF1FF93CF0200E8
:1043E800244DF7FF995BFCFF10DF0500EAA1FDFFF4
:1043F800FFD00500C31DFFFF1F9F08001CD3FEFF51
:10440800B60104004733F8FFDE080D008D6AF9FF96
:104418002B700700CB1C0700DA8C0D003633FCFF2D
:10442800C5C30E003CF90700F6D2F9FF4AE60C00B6
:10443800172AFBFFD9B3F8FF1FB0F6FFF2E3FFFF1F
:10444800D6FA0B003DD205002B3CF7FF0A8C020080
:10445800744E07002E9F000089570E0041DA0700AE
:104468002745FDFF0D570300CAE2F0FF369501000E
:10447800321EF5FFC422F9FF74FCFEFF674F0E00E1
:10448800F6B60D003E5803003EF2000036D6FDFF9A
:104498002431FAFFA2270800ED020300DEC5FAFF67
:1044A800450F090035D30A00573006003E33FAFF9E
:1044B800FDD606006EB1F2FFF7F6F7FF0A3B0100E2
:1044C8004BF4FDFFC414F5FF94F0FCFFDEC10900B6
:1044D8005F17FEFFD5C70100952503004F3C080074
:1044E80026E2F9FFDF99F8FFFAFE0600289A07008E
:1044F8001063F1FF8C1EF7FF11F606009CB0F9FF60
:1045080047EAFAFF41230D003239F3FF6A77F5FFD6
:104518008489F6FFCF490E0079B00E00074BFAFFE9
:104528008344F8FF67CDFEFF377F0300E0340500C2
:10453800D7790E00FAABFDFF5EF7F6FF9EADF9FFE7
:10454800B718F2FF1BF8F9FF07ABF3FF98E806006E
:104558005F2100008A02F5FF9373F8FF345B0600C1
:10456800E1410E001E2CF2FF8CF10C006E02F8FFE8
:104578002444FEFFEF80080049F0F7FFC648F9FF22
:104588003A15FDFF190EF9FF16B90D0091E0FCFF71
:10459800D11CF3FF84E5F8FFA19C0400F10E000094
:1045A80005D5F9FF839EF9FFE0AC01000647F7FF48
:1045B8002B71F6FF75B8FEFF185DFBFF2A3D010061
:1045C8004952FDFFD34FF9FF70590B00CE75FFFF1D
:1045D80087DD0600704EF6FFEC56FAFF11C0F5FFB6
:1045E800ADE40B009E820C0025930A006E22FEFFAC
:1045F8001D390E0001D902008CC3FDFFC729F3FF46
:10460800351DF9FF42C50000C59BF7FF0070070084
:104618005163F2FF3167FEFF64C2FDFF1F3D0A00D0
:1046280087E4FBFF659FF5FF8656FBFF7E7BF2FF65
:10463800A59BFEFF57AEF3FF4C7AF4FFC837FFFF88
:10464800455B0000E3F1FDFF9639FAFF83BEF9FFF1
:104658002C45F7FF4726FEFF6C100E0022D5FBFF06
:10466800812FF9FF968BFFFF9855FFFFEDF10400AE
:10467800C8DDF3FF54CE01003115F5FFEACBF8FF92
:104688009D400D00AB120C00D71E0000F9C4F8FFC6
:10469800FF370500166AF2FFE454FFFFE4760300D3
:1046A800A4560800CD250400301A0700E6EA0300E6
:1046B800245A04006158F2FF57600E006FF6070095
:1046C8004E11F7FFD3D4F2FFD210F1FF2A98010060
:1046D8009791FCFF45C1FEFF4ADCF5FFB7F4FEFFEA
:1046E8000E1D0400FBDB0400D497FCFF7D4AFDFF90
:1046F800F62C0C0052E3FAFF569D06003648FCFFE4
:104708004ECEFCFF1C2C040092B1FDFFD192F4FFA9
:10471800CC94FCFF02120200C20F060000D8F5FF7D
:10472800ADD2F0FFC4230C0030BB0C0032E4FBFF19
:10473800E4860B0015A0F7FFE9F4F4FFAF4B0A007D
:104748004623050057000F00E582FDFF56170100BC
:104758003673FAFFD7350A00B0990C00FFB20E0085
:10476800C0F9FBFF1A67FCFF8B0A0E00537EF4FFAB
:10477800CADDF4FF73EEF1FF36F60400C242F4FF1F
:10478800C43DFCFFA7C10B0061B40B00E1ED0400C0
:104798009C89F3FF0A8208000C5C0D00C3C808005E
:1047A8007A54070036D0FDFF9B040500D415FAFFA4
:1047B800BFECF4FF0A58F4FF22B10D00CDF90C004C
:1047C800C6D8FBFF251C0F0093E10C00D871F5FF3C
:1047D800C282F1FFD74A0700F5630300B0BE0B00A1
:1047E8004A42FEFF409AF5FF2FCE0000EC630E0010
:1047F80065370100561F040043A60600C024F5FFD4
:10480800512EF4FFDEF6F3FF24ED0B0037A7FDFF72
:10481800C9180500EA5FF8FF436C0D000768F1FF4F
:10482800983A0C0017C5F7FF97C208009F99FCFF3C
:10483800005DF9FFD493F9FFD1D4070048CAF3FF0C
:10484800D98FF9FF1515FEFFC4A50B0069A1FFFF5D
:104858006CF60D00608009009AB8FEFF8806F6FF26
:104868002D59F9FFA2C7F9FF8F2403009DC90D0038
:10487800B7BEF0FFF0F10E00F095F2FF1B940200B6
:10488800A60B0300B9D60C0079A0FBFF0B5405005A
:10489800BC63FEFF80E90600F87F040064CD0900D0
:1048A80064BE08001B4AFCFF21C2F2FFA539FFFFC6
:1048B800D4340400DCFD07004394FBFF1682F4FFA8
:1048C800F13DFAFF937400005AF0F8FF465FF3FFDA
:1048D8001DF6FBFF2022F1FF85B5FBFF8410FAFFD0
:1048E800DC34FAFF4875FAFF6BA2FAFFA7AD09009E
:1048F8000BC006005412FEFFD6BD040081120F0043
:104908007AB7FDFF8405FBFFFD7B0C003D420800E4
:10491800BDFB0E001A84FDFFC4DF0C00B8AEF2FF29
:104928002C040900FFF7F6FFEAF3F7FFC0D50C00E7
:104938006D03F5FF6F61F6FFB6640200805508004D
:1049480046EB0A00240DFCFFEEFC01009193F4FFF6
:10495800E4E1F9FF12A90D0047BC040074140D002E
:104968000405FFFF49FDF0FFBC1C0B0020F8040004
:10497800DBBBF6FF37320600EDA5F6FF7E780E00AA
:104988004FA9F4FFD1340E00B3E0FEFF23DAF5FFA0
:104998003EEDFBFF5B380E00397F0700CEE9F8FFDC
:1049A800B32E06000F7CFDFF45BC0B00F2960300FA
:1049B8004445F1FF5BC808001D2DFCFFEA07FCFF1A
:1049C800678B01007257F3FF0E49FCFF86FEFEFF5E
:1049D80086950400803AFDFF5FFF0400B69D040041
:1049E800180002002D0EFAFFF8D5FCFF02120A008B
:1049F8008EAEF7FFC1B5F1FF555BF5FFA1D5F7FF07
:104A08009E1B0800508AFEFF40C1020030A401002E
:104A180027ED0B00A22508000CFD0B0053210F0009
:104A280023A3FEFFDDDF0900EA14FBFF5DBE0500DE
:104A3800DEA0FBFFE8D8F7FF0391F3FF4C47030024
:104A48002B22F1FF4DD2FBFF358FF1FF294C0900D6
:104A58003092F1FF66260D00503201007A14F7FFFC
:104A6800462FFBFFD8C10D00B2C80E0081FEFCFF27
:104A7800E71D080047360500C15BFEFF8C6F070085
:104A8800E7510B00A4CC01009F7A05006FF10D00DF
:104A980033930800192A0900FA35050091AEF4FF8E
:104AA800AC360600B0C4F5FFC8B40400D7E8F6FF7A
:104AB800690BF3FF4DBCF4FF0DC705004C5BFCFF11
:104AC800915FF3FFA19D0700A1BE0A003972F6FFAE
:104AD800F6140800232A0F001A5CFDFF1617F3FFCF
:104AE80004F4FFFFCD4EF7FF367F010006220700D2
:104AF8007112F8FF8AFE0900894AF2FF845C0800F7
:104B0800D32E0200D8050B00DDE00E00BB92060094
:104B1800F7E906001971F8FFA668070059A1FAFF1E
:104B2800236CFAFF12AC00008CA2F3FFFCE3FAFF3F
:104B3800821EF5FF1084020071C002007FA9FFFFEA
:104B4800B543FAFF7BBC03006049FCFF4AA0FDFFA8
:104B5800FF320500732D0800469201005272F3FFE0
:104B680035CF0D002A2F0800ED82FAFF673AFDFFC6
:104B780001A1FCFFB120F6FF86C00E0098B8040022
:104B88005A4FFEFF83ACFCFFB8AE0A0062D2F1FFB9
:104B9800BC66FAFFE9E1F8FFF736F5FFDCF006003E
:104BA800721C07001030F1FFBA1CF7FF7AAC030043
:104BB800F75402007937030055910700604E08004A
:104BC8005F3F0400CAEEF0FFC0C701008C4DFDFF37
:104BD8009EF70600E5EDFFFF02ACFFFF7BAD03008B
:104BE8001AAE0800B421F4FFB45FF3FF25B3040044
:104BF80065F20100A8D5020044810B0085870A00F0
:104C0800AD69F6FF9A620E00C76308000FBA070085
:104C1800CEB906009CEC0C004F27F8FFAA4DFBFF0D
:104C2800EF340B00FEB1F1FFB1440000C5100100E4
:104C3800140AF3FF0910F8FF627E0E005E6D05008E
:104C4800C425F2FFA7A3FAFFA5E1F9FFC12A0B00CB
:104C5800E9930700515CFFFF70DAFDFFACA3F9FF91
:104C6800F15BFFFF98B8FBFF06D00D00CB71FEFF8C
:104C7800D0A700009B8B03009D13F6FFEC450900AD
:104C8800F6FD0400D284F9FF486BFEFFDE29F7FF2A
:104C9800B3270600331C0700A362F7FF2396F7FF2C
:104CA800208FF5FFBEED0000D1670500F8D2FAFFAE
:104CB8009FD7FDFF62E7FFFF13ECF8FFB6A5F4FFEF
:104CC80051C402005488F2FFEC0E0A00109CFDFF4C
:104CD800B062F9FF04F5060067430300D63EF1FF12
:104CE80048A4F5FFFFB700003128FEFF1740050074
:104CF8004C25FBFF4614FFFF1151F8FF6C3AF5FFF6
:104D0800B5E80200A95A0C00C94CF1FF475F0C0036
:104D1800956D0800A26A0A00F9B80E00C057F9FF9D
:104D280034CD01009A980C00BFE1F6FF2E3CF4FF49
:104D38003381F2FF175609006691060041C7030048
:104D4800C186F3FF4A1BF3FFF056FCFF582DF3FF13
:104D580043860400014EF7FF47A501009BB00900F8
:104D6800E98F0C00992300008A710C003020F5FFB0
:104D78008146FCFFB7D209004842FAFF4499FEFF7A
:104D8800BA1C0B0097B101009A53FBFF9CF3070074
:104D98001271FAFF6EEC04008A83F2FF35B50E003B
:104DA8008DE4FFFF257508000550FBFFAC120A00D3
:104DB800A6EAFEFF3E6F020092F20B0053ADFEFF23
:104DC8004391F1FF5958FFFF4AFAF8FF6066FFFF69
:104DD8008711FBFFB0C4FBFFD75FF7FF8F22F1FFFE
:104DE80043D5FDFFA5BDF4FFA8EFFDFF86600100D8
:104DF80055090000E5A9F2FF44B8FBFF73B2FAFFBA
:104E080049AAF2FFAC9BF7FF1367F6FF056E000097
:104E180019E20100E1A20B00DDCCF5FF0814040043
:104E2800318705009474F2FF8B540D00CD3B0800C8
:104E3800E860F8FFDB88FFFF045EF4FF8B22F1FFD8
:104E4800C5020A0057470D009AC80A003BFE050034
:104E580046B90600FACC0500C028F7FFF71A030088
:104E680035ACFCFF6682F2FF6405F1FFB413F2FF74
:104E78006CD6FFFFB5F20A004416FDFFF88907005B
:104E8800FC53F1FFA2FDFDFF646FFEFF6597F9FF7C
:104E980081690300FDA4FFFF571CF3FF8BD8F5FFC2
:104EA800857B030023550C00652E0A006189F1FFFC
:104EB8003F69F7FFBF8E04002EE4F7FF8AC707009B
:104EC80046380000A6E3030015E00500E16D050083
:104ED80009AD0400784B0500D8920E000FA5050017
:104EE8008448F4FFD2DA0E009BF2FAFFD493020052
:104EF80043E40B000582F6FF454B0000DCBCF1FFE4
:104F0800A5970E009CF00D0065710500208908002A
:104F1800003CFEFF650A0600C164F8FF61F2F2FF7B
:104F2800F903F8FF72440600BA66F7FFC901FFFFEC
:104F380043C0F2FF9C64F1FFA6CA0E00EAA90E0066
:104F48001392F3FF0D350700BA6BF5FFCAC7F4FFDC
:104F58006E0E0800C275FDFF4033F3FFC55BF3FF1B
:104F6800E68DFAFFDC740D004210040036A6FEFF41
:104F7800BD3A0600F5F9F6FFB3AA0D008F7BF8FFDE
:104F8800B5E6FEFF42C2050082F8F9FF4C4AF5FF7C
:104F98001760FBFF4AAB07002893FEFF6BE6F3FFA1
:104FA8006C7F0A00B4DFFEFF5C6C0900BDEE0700F1
:104FB800E49F0E00A412070023400C0088B60C00E2
:104FC800ABE6F7FF7EC804003BA80D006B99FDFF18
:104FD80043A1FCFF8E260F00F88EF9FFAC53F4FFB7
:104FE800525CF9FFEAABF2FFF426F5FF48400600F1
:104FF800900F0600F7CC0100BF770B00034B0C00A5
:10500800FFCC080021DAF3FFA32DF6FF4CB5000012
:105018001966FCFF8FAFFDFF27750D0058E5F8FFF7
:1050280088250300D339F6FF823E0E002B0E0400BC
:105038008EABF7FF9F6800009C8E0E00CA76FFFFBC
:105048005CC6F7FFB8A30800FCB10900483F04009C
:105058005D320F004639070020E4FAFF742BF3FF96
:1050680096C100005CFAF3FF3C65F8FF8B3106003F
:105078008B090F0003C7050043E5F2FF2F02F7FF76
:10508800B72EF6FF2D6B0D009B49FCFF0B34070074
:105098001EC7F0FF9B70F4FFC5ABF9FFCA580D009F
:1050A80043A909004BE2F7FF54A4FDFFE77A01008A
:1050B8008FE10C00E1930D00817FFCFF13E4FAFF00
:1050C800CC9BF9FFB08704007DAEFAFFAA3908002F
:1050D8006CE60900C274F5FF1B0FF9FF2B00FCFFFB
:1050E800A194080033C2F1FF315C050026410E008F
:1050F800F037F9FF2006F2FFD2CA01006907020063
:10510800C933FBFF4F93F9FF0BA20000F0DFFEFF4E
:10511800B661FBFFBFBFF1FFC2EBF7FF985FF2FF7D
:10512800ECCEF3FF48EE0A00BEA10C0084F6FDFFAA
:105138005A3DF5FFE236FDFFB0AEF7FF785BF3FFAF
:10514800095C050070DAF8FFDC0AFDFF26E8FEFFBF
:10515800BC6CF9FF466A0300032F0500F8990400A8
:1051680084380000DB18F8FFCAFCFEFF3D77F2FF29
:1051780012320E00E1490600ED6DF1FF932E030097
:10518800DC8F0400BC03F1FFDBCA0000E61EF6FF5B
:10519800B348F2FF60F8F8FFBF720400194F0D0022
:1051A800F93DF1FF17D50100D1740D00BA10FBFFCE
:1051B8005141FBFFCCBA0A00D915F6FF95A40500AA
:1051C800A87C0400171CFAFFB78D0500B386F3FF0F
:1051D80063780800BB55090012800700273CFBFFD5
:1051E800FA140000F7D80600312EF5FFE7B80700DB
:1051F800D973F2FFC9750900D61D0800BD26000045
:105208004F8D0C00FAD4F5FF7F2CF4FF76D50A00F9
:105218002CC8F6FF791F0C005C73FDFFD3BA05009C
:10522800F955000033C5F5FF05BBFDFFC603F8FFC0
:10523800201A0A00F4BBF8FFD240F6FF4B2AF3FF0E
:1052480003E80500FE4E05005C08FDFFD56F0D0064
:10525800B11DFDFFB5EB0E0086A10700B007FBFFEF
:105268004DB4FCFFF55B0000712004000D81FCFFCC
:1052780064880D0085310600C5F4080044D3000099
:105288002E02F1FF5E0BF1FF231A0400FC8F0A00C7
:10529800D7C1FBFF428A01000AB4030088E20E006E
:1052A800CB3F020047540500D894F2FFDA39FFFFDC
:1052B800AC0705000634FBFF183E0C00EAD5FDFFDD
:1052C800C029F5FF99240B00C03A070052D5F4FF16
:1052D800C73BFDFF3438FDFF7F55FDFFEC19F3FF99
:1052E80097BD09001BE9F0FFEC1CF7FFCEE90200AF
:1052F800EA41F2FFB2740A006918F5FF97EE000060
:10530800B8FAF4FFA087F5FF60B104004C7FFAFFFC
:105318002D7C000017E4FDFF0E9804003075F7FFA0
:10532800A71905008600F5FF9F64000077A6FBFF1C
:10533800E0C90900279AFCFFAFB90900630A0D000C
:10534800022FFDFF3B7CFBFF777F0500557A0300AA
:105358002F76FAFFF994FAFF7DBE0300A526FDFF1C
:105368001A6B0800820DF2FF6BA00400D1E0F0FF79
:1053780028A90000413DFAFFC255F8FF6F6E0300EF
:105388002280FCFFC5EBFCFF12FDF3FFC9B00E0045
:10539800A2E1FCFF337902001B7E0600A3FB0B0091
:1053A800B8A50200A3910E0049150100AC6BF7FFE8
:1053B800F04B0200993D000092CB010054DAFBFF4C
:1053C800007FF6FFB5D1FEFFBF880200BB57F3FF91
:1053D8000499010011E9FAFF226F0200E8FFFCFFBF
:1053E800FA70FDFF31FB0C005D4EF5FF35EB0D004B
:1053F80070DBF7FF96180500A51DF8FF10B2050031
:105408003A55F9FFBAC8FFFF3762F1FF1A4EF2FFAB
:1054180050FB05007A76FDFFE3BC0E0006C2F7FFDD
:10542800FDE6FFFF10FE010008260400C14C0C0039
:105438008D120E00C553060008910700B69CF9FFAF
:10544800ABB50E00AB45FBFF1B9C000076C70D00FB
:105458007F3AF2FF7BCC06000F98F9FF77F900003E
:105468009353F7FF20D00A00C002FDFFAE77F2FF8A
:10547800196706009DA1F6FFE29EF5FF6B120F006B
:10548800D9E1F6FF331C0F00DB67F2FF2A85F6FF30
:10549800DF26F4FF0D38060001500500F3D506009D
:1054A800A4CE02009F1E0500DD36060073F6030039
:1054B800E31FF9FF92CCFFFF0FC7FFFFA74EF6FFD0
:1054C8006758F7FF3704F7FF15BA0E00AFEBF3FF85
:1054D800E2C9F2FF62E60300F46BF9FF4B0FFDFF30
:1054E8005B80FAFF4C70FFFFBCD3F7FF3511F5FF67
:1054F8001941F4FF73B004008965FCFF662D0000B4
:1055080023DB0A00E026090014040800650D0800E2
:1055180055DCFCFFC2E30C000F9F0200698E0200FD
:105528008210F4FF416EFBFFFF690B0098600100D9
:10553800B52CF3FFCBC50900D75B090011FF0D009F
:105548008BEB0200179EF3FF50DDF9FFA759F3FF1D
:105558006D69F1FFA05EFEFFD0DFF3FFE17A0A007C
:1055680094350D005C75FFFF3560020089DAFFFF96
:1055780034760500F92A0B00EF83FCFF0AB8030014
:105588006DFB080003C506002568F5FFD318F2FF78
:10559800F6D6F9FF1195F1FF3ACDFFFFD604FEFFCD
:1055A8007745F4FF2DCB0B0079A1070080CAF6FFE1
:1055B800597FF5FF1780FCFF00D0F8FFCF8AF7FF6F
:1055C8002A760700C4040D00EAD5000076D008004A
:1055D800C02602000F2FF5FFE5660A00F45005000B
:1055E8008A1BF4FF320A0E006D020D00F8E003007A
:1055F800E71AF5FF4AEC0E00C414FBFF45F3FEFF63
:1056080083FD0D0010F5F2FFF533F1FF14A104003E
:10561800B5B5F1FF5140F9FF861BFFFF9923FCFF49
:10562800FB2EFCFF5A1FFCFF5BCCF8FF382BF9FF61
:10563800E2500900E31EF7FFCB6D0000E93D0100D1
:10564800CE92FCFFB16F0000DDE7FBFFAB63F9FF13
:10565800141DF3FF2A68FDFF173AF8FF3F1CFBFFF4
:10566800CD9FF3FFED0A0F0083790B008DC30E0069
:10567800F85D0200B63E0D00433C0C00EF14F6FF47
:10568800123E0E009BDCFDFF0D35F8FFC9830500B7
:105698002AD9F9FF4B2DFEFF0B46F7FF9852F5FF6D
:1056A8004A7BFFFFCA64F2FF7903F7FFD5E40500E0
:1056B800F7F805004C590C0047890A008664090070
:1056C800BF19F6FF357CF5FF471303003FCC0B00ED
:1056D8003757F1FFB343020009650100BFEA09002B
:1056E800CAC0F9FF10E101006CEB0A009B6F0600CD
:1056F800A07FFCFF8F4BF1FF0531FAFF5B42FDFFF6
:105708006016FAFFE3B00C00478D0100C118F2FFE4
:10571800AE9C0C0000230C0016650900BEEA0400CC
:105728002E22F2FFEDFA000070EB0600129DF6FF44
:1057380047E2F0FF6FB2040013840400BC9A0E0025
:105748002C56F9FF3E3CF7FF330EFDFFC74EFFFF17
:105758000105F8FFF35DF7FFD390F1FF2A5B0D0019
:10576800C0B6FDFF92F80E00F86FF6FF041CF3FFB9
:105778008E4EF4FF7E72F3FF8C0FF4FFC60B0B0006
:10578800DD670600C41FF2FF6CDC01003268F5FF1C
:10579800B5DF0B00171EFEFF7F4001008860F6FF93
:1057A800768FFFFFF4BAF1FFC1900D0029D00700F2
:1057B8003636FFFF2717F2FFAA760B00BE930200CA
:1057C800BA32F6FF61DF0A002366F8FF08DDFDFF45
:1057D800F9730100B942F2FFB4C7F7FF89920B00D1
:1057E80013ADFCFFCD5D040022ABFFFFAE830500C7
:1057F800AF64090095090800D549FAFFD933F5FFC8
:10580800AA510E002130080024D405001B380300DB
:1058180019B5F7FF1CCDFDFF114B0A0059BD0B0050
:10582800FB980D00FE750700B4EDFBFFF1020600C2
:105838005D1A0900EFA0F3FFCAC2F7FF98E5F5FF6C
:10584800668DF9FF81A00B00CC440A0082C50000D8
:10585800C310030059080700B3C50900D7000200A8
:1058680051310800C3330D00118AF2FF706900003E
:10587800F6AC0500A16EFFFF9D70F7FFA30F0600B1
:10588800E2140E004E81FBFF20C3F6FF9D0EFEFFC3
:105898001D16FEFF9B160C0046CB0D0069EDF9FFA7
:1058A800A8B10700384BFCFF062EF7FFD22DF5FFF5
:1058B80049D00100248D0100127A0800B9A7F1FF30
:1058C800CF6DF6FF28C00B00A3800300D543F9FF76
:1058D800774BFFFF6E12F3FFCEDE0200863EFEFF1F
:1058E800A6DB0900FD14F9FFABC906000C0D0C007E
:1058F8005D3D0800276F0C00FE09F7FFCD4B040043
:10590800B6790C00A25CFFFFF7B706005DAA03009A
:10591800E7690400DCF8F7FFD149F9FF3BD60E0030
:1059280058F8FFFF92F7FFFF60FD07009AB80100E3
:105938007E99FBFF58B7F9FF4FE10E0046360C0081
:10594800271A0800DD8E0600C450F9FF2D0E02004C
:105958008B3E040027FDF5FFC131FAFF4A4AF8FFE4
:105968000ACF0000EF0FF9FF6BF60100871E0B004E
:10597800F895F5FFF1220000009409003FCF0D00D3
:10598800B5140B0092FAF6FF26440200A0860A001E
:10599800B6510200F29E0C0032650900CD35FFFFBA
:1059A80030C9F0FF9F72F2FF6F7AF9FFB80FF4FF6A
:1059B8002147F2FFFF1EF4FF9B1FF7FF1C23060081
:1059C80034DEF4FF5A3F0300D00E0600758A080043
:1059D800A5F4FBFF08820B00AD750D0052B1040061
:1059E800678D01004F630B001B100D00BC710E008A
:1059F8006A67FEFF8B600800496C0500F1ED0B003B
:105A080034F0FBFFE1950E00C5D7F1FFCC6FFAFF2C
:105A1800DCEBF5FFA319020040F80C00139A0B0009
:105A280083890B00B6140A00E49EFDFFF806FCFF0C
:105A380012A00300DDB1FEFF0359F8FFEC4103009B
:105A48003F1E090074E208008A02F2FFF6B10D0059
:105A580067FEF0FF1F9FFAFFF39BF6FF038E05001A
:105A680053EEF2FF3F39FCFFA90CFEFFD6AEFCFF58
:105A78008449F9FF85EF0A00E759F8FF3295FBFFE3
:105A88001DE50E003477FEFF5E040B0091A30300B2
:105A9800C5F10A0055E50100EAE505006C030600BA
:105AA800AC6E0100C9C2F8FFC0D10400023F040077
:105AB800093002004A28F1FFBBEDFBFF25CE0A00A2
:105AC80005F8FCFF438104001A0F0600D92CF8FFE3
